8=FIX.4.2|9=74|35=A|34=1|49=CLIENT|52=20211201-15:33:19.688|56=EXECUTOR|98=0|108=5|141=Y|10=049|8=FIX.4.2|9=112|35=D|34=2|49=CLIENT|52=20211201-15:33:19.766|56=EXECUTOR|11=456|21=3|40=1|54=1|55=AJCB|60=20211201-15:33:16.475|10=136|8=FIX.4.2|9=57|35=5|34=3|49=CLIENT|52=20211201-15:33:19.786|56=EXECUTOR|10=015|